:020000040000FA
:040000003BEF00F0E2
:100008003882FACF25F0FBCF26F00E01BDAB0FEFFB
:1000180000F011EF00F01CEF00F0C5AB16EF00F098
:1000280018EF00F01CEF00F0D0EC02F035EF00F014
:10003800F2AC21EF00F023EF00F035EF00F0C1A79C
:1000480028EF00F02AEF00F035EF00F0C9A72FEFF6
:1000580000F031EF00F035EF00F0D8EC01F035EFAB
:1000680000F026C0FBFF25C0FAFF389211008CEF84
:1000780002F0CAEC00F0EEEC02F00009D8B447EF49
:1000880000F049EF00F067EF00F0F0EC02F0000933
:10009800D8B451EF00F053EF00F067EF00F01D4ABD
:1000A8001E2A1EBE61EF00F01E5009E1030E1D5C02
:1000B800D8A061EF00F063EF00F067EF00F0000EEA
:1000C8001E6E000E1D6E1A501910181017101610FB
:1000D8001510141009E1320E135CD8A076EF00F069
:1000E80078EF00F0C9EF00F020EE13F0070EDE6A9B
:1000F800E806FDE29BEF00F0000E276EFF0E286E6B
:10010800000ED9EC02F0C9EF00F0000E276E000EC9
:10011800286EFF0ED9EC02F0C9EF00F0FF0E276E33
:10012800000E286E000ED9EC02F0C9EF00F01DC0D9
:1001380030F01EC031F03150000AD8B4A6EF00F0FC
:10014800C9EF00F03050000AD8B480EF00F0010A7F
:10015800D8B489EF00F0030AD8B492EF00F0010A8E
:10016800D8B4C9EF00F0070AD8B4C9EF00F0010A03
:10017800D8B4C9EF00F0030AD8B4C9EF00F0010AF7
:10018800D8B4C9EF00F0C9EF00F012000F500E10FC
:100198000D1009E1050E0C5CD8A0D5EF00F0D7EFE3
:1001A80000F0E1EF00F0000E0C6E000E0D6E000E78
:1001B8000E6E000E0F6E2CEC01F0000E086E000E95
:1001C800096E000E0A6E000E0B6E01C002F08CACB8
:1001D800F0EF00F0F3EF00F0010EF4EF00F0000E86
:1001E8001BC02EF01CC02FF0D8902E362F362E12A2
:1001F800000E2F12FE0E2E101B6EFF0E2F101C6EFF
:100208001B2806E11C28D8A40CEF01F00EEF01F022
:1002180012EF01F0010E016E14EF01F0000E016EF5
:1002280001500218D8B41BEF01F01DEF01F029EFBF
:1002380001F0010E036E000E046E000E056E000E36
:10024800066E000E076E2BEF01F0000E036E120013
:100258001050FF0A2B6E2B50040DF3CF2CF0F4CF67
:100268002DF02CC027F02DC028F0BEEC01F0115065
:10027800FF0A2B6E2B50040DF3CF2CF0F4CF2DF08A
:100288002CC027F02DC028F0A4EC01F01250FF0A72
:100298002B6E2B50040DF3CF2CF0F4CF2DF02CC087
:1002A80027F02DC028F0F1EC01F01200000E826E4C
:1002B800000E836E020E846E87688868D50E896E7C
:1002C8000F011C691469BF0E0C6F000E286F000E19
:1002D800136F000E0B6F000E1B6F000E0A6F000EDF
:1002E800126F000E1A6F0969116919690869106996
:1002F8001869080E256F070E0E01F56F050EF36FCE
:10030800080EF76F1200400ED56EC10ED36E800E28
:10031800D26ED250D3CF29F02A6A29C02AF0296A8E
:100328002910366E2A50376E0E01C59BBD8BEE0E16
:10033800276E050E286EE6EC02F0900ED46E1200C1
:1003480027C029F028C02AF0D8902A322932D8901C
:100358002A3229322950A06E27C029F0030E291607
:10036800060E2A6ED89029362A2EB6EF01F02950AB
:100378009F6E120027C029F028C02AF0D8902A3290
:100388002932D8902A3229322950A36E27C029F061
:10039800030E2916060E2A6ED89029362A2ED0EF7B
:1003A80001F02950A26E12000E01C9973250331085
:1003B800D8B4E1EF01F0E3EF01F0F0EF01F002D87B
:1003C800F0EF01F00500FA6E3250FD6E3350FE6E0C
:1003D800F850FF6EFA5012001200FF0E2716030E97
:1003E8002816ABA8FAEF01F0FCEF01F003EF02F0DA
:1003F800060ED89027362836E82EFDEF01F0285053
:10040800AA6E27C0A9FF120034503510D8B40FEFD8
:1004180002F011EF02F01EEF02F002D81EEF02F018
:100428000500FA6E3450FD6E3550FE6EF850FF6EC2
:10043800FA5012001200320E276E050E286EE6ECF6
:1004480002F0FF0E286E2768A4EC01F0FF0E286E5C
:100458002768BEEC01F0FF0E286E2768F1EC01F06A
:100468001200010EB86E200EB76E000EB96EB56898
:10047800000EB46E0E01C997C187EC0E276E050EEB
:10048800286EE1EC02F0F00EB66E1200F4EC02F009
:100498007EEC02F05AEC01F0A6EC02F0C6EC02F099
:1004A800B2EC02F035EC02F0BCEC02F087EC01F0A3
:1004B8001200010E0C26000E0D220E220F22010E34
:1004C8000426000E052206220722010E0826000E29
:1004D80009220A220B2212004AEC02F0EBEC02F08D
:1004E8001FEC02F0F28EF28C3DEC00F078EF02F097
:1004F8003BEF00F0000E0E01DC6F000EDD6F000E0A
:10050800DE6F000EDF6F000EE06F000EE16F12006D
:1005180000EE01F0240EEE6AE806FDE1389038920C
:10052800000EF86E000170EF02F05DEC02F0010EB3
:100538001326000E14221522162217221822192219
:100548001A221200600E0E01D36F000ED56F000E36
:10055800D76F080ED96F000ED86F1200800EA16EEB
:10056800A068C00E9F6EAD503F0B8009AD6E1200A3
:10057800800EA46EA368C00EA26EAD50CF0B2009EA
:10058800AD6E12008C0EAB6E030EAA6EA968AD504C
:10059800FC0B0209AD6E12000E01C59B3750D36EDD
:1005A80036C0D2FF08EC02F01200296E29C010F004
:1005B80027C011F028C012F0120027C032F028C05E
:1005C80033F0120027C034F028C035F01200F2ECE6
:1005D80002F012000150120003501200B68E1200F1
:0805E800F29A12001200120049
:020000040020DA
:10000000FFFFFFFFFFFFFFFFFFFFFFFFFFFFFFFF00
:10001000FFFFFFFFFFFFFFFFFFFFFFFFFFFFFFFFF0
:10002000FFFFFFFFFFFFFFFFFFFFFFFFFFFFFFFFE0
:10003000FFFFFFFFFFFFFFFFFFFFFFFFFFFFFFFFD0
:10004000FFFFFFFFFFFFFFFFFFFFFFFFFFFFFFFFC0
:10005000FFFFFFFFFFFFFFFFFFFFFFFFFFFFFFFFB0
:10006000FFFFFFFFFFFFFFFFFFFFFFFFFFFFFFFFA0
:10007000FFFFFFFFFFFFFFFFFFFFFFFFFFFFFFFF90
:10008000FFFFFFFFFFFFFFFFFFFFFFFFFFFFFFFF80
:10009000FFFFFFFFFFFFFFFFFFFFFFFFFFFFFFFF70
:1000A000FFFFFFFFFFFFFFFFFFFFFFFFFFFFFFFF60
:1000B000FFFFFFFFFFFFFFFFFFFFFFFFFFFFFFFF50
:1000C000FFFFFFFFFFFFFFFFFFFFFFFFFFFFFFFF40
:1000D000FFFFFFFFFFFFFFFFFFFFFFFFFFFFFFFF30
:1000E000FFFFFFFFFFFFFFFFFFFFFFFFFFFFFFFF20
:1000F000FFFFFFFFFFFFFFFFFFFFFFFFFFFFFFFF10
:020000040030CA
:0C0000008CFFFFFF9FFFFFFFFFFFFFFFD3
:00000001FF
