:020000040000FA
:040000003BEF00F0E2
:100008002382FACF11F0FBCF12F00E01BDAB0FEF38
:1000180000F011EF00F01CEF00F0C5AB16EF00F098
:1000280018EF00F01CEF00F03FEC03F035EF00F0A4
:10003800F2AC21EF00F023EF00F035EF00F0C1A79C
:1000480028EF00F02AEF00F035EF00F0C9A72FEFF6
:1000580000F031EF00F035EF00F05CEC02F035EF26
:1000680000F012C0FBFF11C0FAFF23921100FDEF50
:1000780002F00850071006100510041003100210B3
:1000880009E1320E015CD8A04CEF00F04EEF00F011
:1000980072EF01F020EE01F0070EDE6AE806FDE2DD
:1000A80032EF01F0040E0F26000E1022000E0E6E25
:1000B800000E0D6E000E0C6E000E0B6E105008E157
:1000C8000F28D8A06AEF00F06CEF00F060EF01F0A5
:1000D800000E0A6E010E096E60EF01F0040E0F5E4D
:1000E800000E105A000E0E6E000E0D6E000E0C6EF5
:1000F800000E0B6E0F501010D8A485EF00F087EF9C
:1001080000F060EF01F0000E0A6E020E096E60EF5B
:1001180001F0040E0D26000E0E22000E106E000EC9
:100128000F6E000E0C6E000E0B6E0E5008E10D28BF
:10013800D8A0A1EF00F0A3EF00F060EF01F0000EEF
:100148000A6E030E096E60EF01F0040E0D5E000EDC
:100158000E5A000E106E000E0F6E000E0C6E000E82
:100168000B6E0D500E10D8A4BCEF00F0BEEF00F0DF
:1001780060EF01F0000E0A6E040E096E60EF01F0E8
:10018800040E0B26000E0C22000E106E000E0F6ED1
:10019800000E0E6E000E0D6E0C5008E10B28D8A054
:1001A800D8EF00F0DAEF00F060EF01F0000E0A6E11
:1001B800050E096E60EF01F0040E0B5E000E0C5A7E
:1001C800000E106E000E0F6E000E0E6E000E0D6EFD
:1001D8000B500C10D8A4F3EF00F0F5EF00F060EF2F
:1001E80001F0000E0A6E060E096E60EF01F0040EB3
:1001F8000B26000E0C22040E0F26000E1022040EF1
:100208000D26000E0E220C5008E10B28D8A00FEF87
:1002180001F011EF01F060EF01F0000E0A6E070E19
:10022800096E60EF01F0040E0B5E000E0C5A040E0E
:100238000F5E000E105A040E0D5E000E0E5A0B5083
:100248000C10D8A42AEF01F02CEF01F060EF01F0B8
:10025800000E0A6E000E096E60EF01F009C01BF077
:100268000AC01CF01C50000AD8B43DEF01F060EF42
:1002780001F01B50000AD8B456EF00F0010AD8B4B8
:1002880072EF00F0030AD8B48DEF00F0010AD8B479
:10029800A9EF00F0070AD8B4C4EF00F0010AD8B4F7
:1002A800E0EF00F0030AD8B4FBEF00F0010AD8B47D
:1002B80017EF01F060EF01F00FC017F010C018F051
:1002C800C3EC01F00DC017F00EC018F09FEC01F060
:1002D8000BC015F00CC016F0E7EC01F01200000E90
:1002E800826E000E836E020E846E87688868D50E53
:1002F800896E0F011C6914690C69000E286F000EC5
:10030800136F000E0B6F000E1B6F000E0A6F000EAE
:10031800126F000E1A6F0969116919690869106965
:100328001869080E256F070E0E01F56F050EF36F9D
:10033800080EF76F12001804D8A0A5EF01F0A7EF78
:1003480001F0AAEF01F0000E186E1768FF0E196E83
:10035800000E1A6E1750195E18501A5AD89019368E
:100368001A36D89019361A3619C017F01AC018F06C
:1003780017C013F018C014F028EC02F0120018048B
:10038800D8A0C9EF01F0CBEF01F0CEEF01F0000EDD
:10039800186E1768FF0E196E000E1A6E1750195E48
:1003A80018501A5AD89019361A36D89019361A365B
:1003B80019C017F01AC018F017C013F018C014F0BD
:1003C80042EC02F012001604D8A0EDEF01F0EFEFB6
:1003D80001F0F2EF01F0000E166E1568FF0E176EB1
:1003E800000E186E1550175E1650185AD89017360A
:1003F8001836D8901736183617C015F018C016F0EA
:1004080015C013F016C014F075EC02F01200400E7F
:10041800D56EC10ED36E800ED26ED250D3CF15F0EA
:10042800166A15C016F0156A1510216E1650226E40
:100438000E01C59BBD8BB40E136E060E146E4DECEB
:1004480003F0900ED46E120013C015F014C016F00D
:10045800D89016321532D890163215321550A36E30
:1004680013C015F0030E1516060E166ED890153625
:10047800162E3AEF02F01550A26E120013C015F0B6
:1004880014C016F0D89016321532D890163215329C
:100498001550A06E13C015F0030E1516060E166E35
:1004A800D8901536162E54EF02F015509F6E120094
:1004B8000E01C9971D501E10D8B465EF02F067EF02
:1004C80002F074EF02F002D874EF02F00500FA6E41
:1004D8001D50FD6E1E50FE6EF850FF6EFA50120051
:1004E8001200FF0E1316030E1416ABA87EEF02F0CF
:1004F80080EF02F087EF02F0060ED890133614361C
:10050800E82E81EF02F01450AA6E13C0A9FF120062
:100518001F502010D8B493EF02F095EF02F0A2EF2D
:1005280002F002D8A2EF02F00500FA6E1F50FD6E2D
:100538002050FE6EF850FF6EFA50120012002C0E7A
:10054800136E060E146E4DEC03F0FF0E146E136856
:1005580042EC02F0FF0E146E136828EC02F0FF0E56
:10056800146E136875EC02F01200010EB86E200EBE
:10057800B76E000EB96EB568000EB46E0E01C9975D
:10058800C187B20E136E060E146E48EC03F0F00E1F
:10059800B66E120057EC03F0EFEC02F073EC01F0CA
:1005A8000AEC03F035EC03F021EC03F0B9EC02F0AF
:1005B8002BEC03F00BEC02F01200CEEC02F052EC44
:1005C80003F0A3EC02F0F28EF28C3DEC00F0E9EFC0
:1005D80002F03BEF00F0000E0E01DC6F000EDD6F45
:1005E800000EDE6F000EDF6F000EE06F000EE16F91
:1005F800120000EE01F0100EEE6AE806FDE123900D
:100608002392000EF86E0001E1EF02F0600E0E0179
:10061800D36F000ED56F000ED76F080ED96F000E7E
:10062800D86F1200010E0126000E022203220422B6
:1006380005220622072208221200800EA16EA06859
:10064800C00E9F6EAD503F0B8009AD6E1200800E3C
:10065800A46EA368C00EA26EAD50CF0B2009AD6E7C
:1006680012008C0EAB6E030EAA6EA968AD50FC0B7F
:100678000209AD6E12000E01C59B2250D36E21C037
:10068800D2FF8CEC02F0120013C01DF014C01EF053
:10069800120013C01FF014C020F0120055EC03F034
:0E06A8001200B68E1200F29A1200120012001A
:020000040020DA
:10000000FFFFFFFFFFFFFFFFFFFFFFFFFFFFFFFF00
:10001000FFFFFFFFFFFFFFFFFFFFFFFFFFFFFFFFF0
:10002000FFFFFFFFFFFFFFFFFFFFFFFFFFFFFFFFE0
:10003000FFFFFFFFFFFFFFFFFFFFFFFFFFFFFFFFD0
:10004000FFFFFFFFFFFFFFFFFFFFFFFFFFFFFFFFC0
:10005000FFFFFFFFFFFFFFFFFFFFFFFFFFFFFFFFB0
:10006000FFFFFFFFFFFFFFFFFFFFFFFFFFFFFFFFA0
:10007000FFFFFFFFFFFFFFFFFFFFFFFFFFFFFFFF90
:10008000FFFFFFFFFFFFFFFFFFFFFFFFFFFFFFFF80
:10009000FFFFFFFFFFFFFFFFFFFFFFFFFFFFFFFF70
:1000A000FFFFFFFFFFFFFFFFFFFFFFFFFFFFFFFF60
:1000B000FFFFFFFFFFFFFFFFFFFFFFFFFFFFFFFF50
:1000C000FFFFFFFFFFFFFFFFFFFFFFFFFFFFFFFF40
:1000D000FFFFFFFFFFFFFFFFFFFFFFFFFFFFFFFF30
:1000E000FFFFFFFFFFFFFFFFFFFFFFFFFFFFFFFF20
:1000F000FFFFFFFFFFFFFFFFFFFFFFFFFFFFFFFF10
:020000040030CA
:0C0000008CFFFFFF9FFFFFFFFFFFFFFFD3
:00000001FF
