:020000040000FA
:040000003BEF00F0E2
:100008002382FACF11F0FBCF12F00E01BDAB0FEF38
:1000180000F011EF00F01CEF00F0C5AB16EF00F098
:1000280018EF00F01CEF00F080EC01F035EF00F065
:10003800F2AC21EF00F023EF00F035EF00F0C1A79C
:1000480028EF00F02AEF00F035EF00F0C9A72FEFF6
:1000580000F031EF00F035EF00F01CEC02F035EF66
:1000680000F012C0FBFF11C0FAFF23921100B9EF94
:1000780002F00850071006100510041003100210B3
:1000880009E1320E015CD8A04CEF00F04EEF00F011
:1000980036EF01F020EE01F0070EDE6AE806FDE219
:1000A800FEEF00F0020E0F26000E1022000E0E6E5C
:1000B800000E0D6E000E0C6E000E0B6E105009E156
:1000C800640E0F5CD8A06BEF00F06DEF00F024EF2A
:1000D80001F0000E0A6E010E096E24EF01F0020E07
:1000E8000F5E000E105A000E0E6E000E0D6E000E02
:1000F8000C6E000E0B6E0F501010D8A486EF00F097
:1001080088EF00F024EF01F0000E0A6E020E096E6F
:1001180024EF01F0020E0D26000E0E22000E106EC6
:10012800000E0F6E000E0C6E000E0B6E0E5009E1E5
:10013800640E0D5CD8A0A3EF00F0A5EF00F024EF4B
:1001480001F0000E0A6E030E096E24EF01F0020E94
:100158000D5E000E0E5A000E106E000E0F6E000E91
:100168000C6E000E0B6E0D500E10D8A4BEEF00F0F2
:10017800C0EF00F024EF01F0000E0A6E040E096EC5
:1001880024EF01F0020E0B26000E0C22000E106E5A
:10019800000E0F6E000E0E6E000E0D6E0C5009E173
:1001A800640E0B5CD8A0DBEF00F0DDEF00F024EF6D
:1001B80001F0000E0A6E050E096E24EF01F0020E22
:1001C8000B5E000E0C5A000E106E000E0F6E000E25
:1001D8000E6E000E0D6E0B500C10D8A4F6EF00F04A
:1001E800F8EF00F024EF01F0000E0A6E000E096E21
:1001F80024EF01F009C01BF00AC01CF01C50000AD3
:10020800D8B409EF01F024EF01F01B50000AD8B46C
:1002180056EF00F0010AD8B473EF00F0030AD8B41F
:100228008EEF00F0010AD8B4ABEF00F0070AD8B49B
:10023800C6EF00F0010AD8B4E3EF00F024EF01F0B4
:100248000FC019F010C01AF0EAEC01F00DC019F057
:100258000EC01AF0D1EC01F00BC019F00CC01AF066
:1002680003EC02F01200000E826E000E836E020E86
:10027800846E87688868D50E896E0F011C691469B9
:100288000C69000E286F000E136F000E0B6F000E26
:100298001B6F000E0A6F000E126F000E1A6F0969AD
:1002A80011691969086910691869080E256F070E20
:1002B8000E01F56F050EF36F080EF76F1200400E72
:1002C800D56EC10ED36E800ED26ED250D3CF15F03C
:1002D800166A15C016F0156A1510216E1650226E92
:1002E8000E01C59BBD8B1A0E136E060E146E00EC24
:1002F80003F0900ED46E12000E01C59B2250D36EEF
:1003080021C0D2FF1F502010D8B48DEF01F08FEF1D
:1003180001F09CEF01F002D89CEF01F00500FA6EA5
:100328001F50FD6E2050FE6EF850FF6EFA501200FE
:10033800120013C015F014C016F0D89016321532FA
:10034800D890163215321550A36E13C015F0030E4F
:100358001516060E166ED8901536162EAFEF01F04C
:100368001550A26E120013C015F014C016F0D890E4
:1003780016321532D890163215321550A06E13C0A9
:1003880015F0030E1516060E166ED8901536162E95
:10039800C9EF01F015509F6E120019506408136ED2
:1003A8001A50D8A0E82A0008146E000E166E0A0E1D
:1003B800156E77EC02F013C019F014C01AF019C0CA
:1003C80013F01AC014F09DEC01F0120019506408E3
:1003D800136E1A50D8A0E82A0008146E000E166E84
:1003E8000A0E156E77EC02F013C019F014C01AF05B
:1003F80019C013F01AC014F0B7EC01F0120019502C
:100408006408136E1A50D8A0E82A0008146E000E6B
:10041800166E0A0E156E77EC02F013C019F014C0B0
:100428001AF019C013F01AC014F035EC02F01200DB
:100438000E01C9971D501E10D8B425EF02F027EF02
:1004480002F034EF02F002D834EF02F00500FA6E41
:100458001D50FD6E1E50FE6EF850FF6EFA501200D1
:100468001200FF0E1316030E1416ABA83EEF02F08F
:1004780040EF02F047EF02F0060ED890133614361C
:10048800E82E41EF02F01450AA6E13C0A9FF120023
:10049800A40E136E050E146E00EC03F0FF0E146E1E
:1004A8001368B7EC01F0FF0E146E13689DEC01F0B1
:1004B800FF0E146E136835EC02F01200010EB86ED0
:1004C800200EB76E000EB96EB568000EB46E0E0140
:1004D800C997C187180E136E060E146EFBEC02F056
:1004E800F00EB66E120013501502F3CF17F0F4CFCA
:1004F80018F013501602F350182614501502F35032
:10050800182617C013F018C014F012000AEC03F0F4
:10051800ABEC02F037EC01F0C6EC02F0F1EC02F0C3
:10052800DDEC02F062EC02F0E7EC02F063EC01F0C3
:1005380012008AEC02F005EC03F04CEC02F0F28EAB
:10054800F28C3DEC00F0A5EF02F03BEF00F0000E5E
:100558000E01DC6F000EDD6F000EDE6F000EDF6F28
:10056800000EE06F000EE16F120000EE01F0100EB9
:10057800EE6AE806FDE123902392000EF86E000172
:100588009DEF02F0600E0E01D36F000ED56F000EC6
:10059800D76F080ED96F000ED86F1200010E012612
:1005A800000E022203220422052206220722082224
:1005B8001200800EA16EA068C00E9F6EAD503F0B5A
:1005C8008009AD6E1200800EA46EA368C00EA26EE4
:1005D800AD50CF0B2009AD6E12008C0EAB6E030E22
:1005E800AA6EA968AD50FC0B0209AD6E120013C0CB
:1005F8001DF014C01EF0120013C01FF014C020F02C
:10060800120008EC03F01200B68E1200F29A1200E3
:0406180012001200BA
:020000040020DA
:10000000FFFFFFFFFFFFFFFFFFFFFFFFFFFFFFFF00
:10001000FFFFFFFFFFFFFFFFFFFFFFFFFFFFFFFFF0
:10002000FFFFFFFFFFFFFFFFFFFFFFFFFFFFFFFFE0
:10003000FFFFFFFFFFFFFFFFFFFFFFFFFFFFFFFFD0
:10004000FFFFFFFFFFFFFFFFFFFFFFFFFFFFFFFFC0
:10005000FFFFFFFFFFFFFFFFFFFFFFFFFFFFFFFFB0
:10006000FFFFFFFFFFFFFFFFFFFFFFFFFFFFFFFFA0
:10007000FFFFFFFFFFFFFFFFFFFFFFFFFFFFFFFF90
:10008000FFFFFFFFFFFFFFFFFFFFFFFFFFFFFFFF80
:10009000FFFFFFFFFFFFFFFFFFFFFFFFFFFFFFFF70
:1000A000FFFFFFFFFFFFFFFFFFFFFFFFFFFFFFFF60
:1000B000FFFFFFFFFFFFFFFFFFFFFFFFFFFFFFFF50
:1000C000FFFFFFFFFFFFFFFFFFFFFFFFFFFFFFFF40
:1000D000FFFFFFFFFFFFFFFFFFFFFFFFFFFFFFFF30
:1000E000FFFFFFFFFFFFFFFFFFFFFFFFFFFFFFFF20
:1000F000FFFFFFFFFFFFFFFFFFFFFFFFFFFFFFFF10
:020000040030CA
:0C0000008CFFFFFF9FFFFFFFFFFFFFFFD3
:00000001FF
