:040000003BEF00F0E2
:100008004682FACF20F0FBCF21F00E01BDAB0FEFF7
:1000180000F011EF00F01CEF00F0C5AB16EF00F098
:1000280018EF00F01CEF00F0BCEC03F035EF00F027
:10003800F2AC21EF00F023EF00F035EF00F0C1A79C
:1000480028EF00F02AEF00F035EF00F0C9A72FEFF6
:1000580000F031EF00F035EF00F0C7EC02F035EFBB
:1000680000F021C0FBFF20C0FAFF4692110078EF94
:1000780003F0D7EC00F0BCEF00F01A50191018107C
:10008800171016101510141009E11E0E135CD8A0D5
:1000980050EF00F052EF00F061EF00F020EE13F0A7
:1000A800070EDE6AE806FDE2050E1F26000E226E28
:1000B800000E236E1F50C5EC03F0F90E1F6467EFA6
:1000C80000F069EF00F0D6EF00F0000E1E6E010E92
:1000D8001D6ED6EF00F01A501910181017101610D0
:1000E8001510141009E11E0E135CD8A07EEF00F065
:1000F80080EF00F090EF00F020EE13F0070EDE6ABC
:10010800E806FDE21F50FB0F1F6E000E226E000E68
:10011800236E1F50C5EC03F01F50D8A496EF00F0D3
:1001280098EF00F0D6EF00F03A06D8A03B063A5018
:100138003B10D8A4A2EF00F0A4EF00F0AAEF00F063
:10014800000E1E6E020E1D6ED6EF00F0000E1E6E23
:10015800000E1D6ED6EF00F0FF0E226EFF0E236E0E
:10016800FF0E246E000E256ECDEC03F0D6EF00F0E6
:100178001DC02BF01EC02CF02C50000AD8B4C7EFBD
:1001880000F0AAEF00F02B50000AD8B441EF00F0BD
:10019800010AD8B46FEF00F0030AD8B4B0EF00F04A
:1001A800AAEF00F012000F500E100D1009E1050E15
:1001B8000C5CD8A0E2EF00F0E4EF00F0EEEF00F006
:1001C800000E0C6E000E0D6E000E0E6E000E0F6E01
:1001D800F4EC01F001C002F08CACF5EF00F0F8EFA0
:1001E80000F0010EF9EF00F0000E1BC029F01CC052
:1001F8002AF0D89029362A362912000E2A12FE0E25
:1002080029101B6EFF0E2A101C6E1B2806E11C28E5
:10021800D8A411EF01F013EF01F017EF01F0010E70
:10022800016E19EF01F0000E016E01500218D8B4EA
:1002380020EF01F022EF01F02EEF01F0010E036E26
:10024800000E046E000E056E000E066E000E076EA0
:1002580030EF01F0000E036E1200000E396E35BE4D
:100268003AEF01F038EF01F040EF01F0346C351E41
:10027800D8B0352A010E396E37BE47EF01F045EF89
:1002880001F04BEF01F0366C371ED8B0372A3650E4
:100298003710D8B452EF01F054EF01F078EF01F0C5
:1002A800010E386E5CEF01F0D89036363736382AB2
:1002B80037AE61EF01F063EF01F058EF01F036500F
:1002C800345C37503558D8A06CEF01F06EEF01F070
:1002D80072EF01F03650345E3750355AD8903732C5
:1002E8003632382E63EF01F03950D8B47EEF01F082
:1002F80080EF01F084EF01F0346C351ED8B0352A58
:1003080034C034F035C035F0120042C022F043C08A
:1003180023F044C024F045C025F02D0E266E7F0E34
:10032800276E950E286E4C0E296EBFEC01F0010E5B
:100338002224426E000E2320436E000E2420446EB9
:10034800000E2520456E42C030F043C031F044C055
:1003580032F045C033F0120EB7EF01F0D8903332C7
:10036800323231323032E82EB2EF01F030C02EF0A6
:1003780031C02FF01200000E2A6E000E2B6E000EF8
:100388002C6E000E2D6E22A0CCEF01F0CEEF01F006
:10039800D6EF01F026502A2627502B2228502C224F
:1003A80029502D22D8902636273628362936D89037
:1003B80025322432233222322250231024102510D1
:1003C800D8A4E9EF01F0EBEF01F0C7EF01F02AC084
:1003D80022F02BC023F02CC024F02DC025F01200F1
:1003E8001050FF0A266E2650040DF3CF27F0F4CFE5
:1003F80028F027C022F028C023F0ADEC02F01150FD
:10040800FF0A266E2650040DF3CF27F0F4CF28F00C
:1004180027C022F028C023F093EC02F01250FF0A04
:10042800266E2650040DF3CF27F0F4CF28F027C00E
:1004380022F028C023F0E0EC02F01200000E826ED9
:10044800000E836E020E846E87688868D50E896EEA
:100458000F011C691469BF0E0C6F000E286F000E87
:10046800136F000E0B6F000E1B6F000E0A6F000E4D
:10047800126F000E1A6F0969116919690869106904
:100488001869080E256F070E0E01F56F050EF36F3C
:10049800080EF76F12000A0E226E070E236ED9ECB3
:1004A80003F0000E226E000E236E000E246E000E66
:1004B800256ECDEC03F0010E236E3E0E226E23EC6A
:1004C80003F089EC01F02EC034F02FC035F0000E97
:1004D800376E050E366E31EC01F034C03AF035C097
:1004E8003BF01200400ED56EC10ED36E800ED26E58
:1004F800D250D3CF24F0256A24C025F0246A2410D2
:10050800406E2550416E0E01C59BBD8BCC0E226EF0
:10051800070E236ED9EC03F0900ED46E120022C0A1
:1005280024F023C025F0D89025322432D8902532E3
:1005380024322450A06E22C024F0030E2416060E86
:10054800256ED8902436252EA5EF02F024509F6EF4
:10055800120022C024F023C025F0D890253224327E
:10056800D890253224322450A36E22C024F0030EE2
:100578002416060E256ED8902436252EBFEF02F0DD
:100588002450A26E12000E01C9973C503D10D8B4F9
:10059800D0EF02F0D2EF02F0DFEF02F002D8DFEF87
:1005A80002F00500FA6E3C50FD6E3D50FE6EF850AC
:1005B800FF6EFA5012001200FF0E2216030E2316C9
:1005C800ABA8E9EF02F0EBEF02F0F2EF02F0060E53
:1005D800D89022362336E82EECEF02F02350AA6E8C
:1005E80022C0A9FF12003E503F10D8B4FEEF02F01F
:1005F80000EF03F00DEF03F002D80DEF03F0050054
:10060800FA6E3E50FD6E3F50FE6EF850FF6EFA5087
:1006180012001200010EB86E200EB76E000EB96EF1
:10062800B568000EB46E0E01C997C187CA0E226E56
:10063800070E236ED4EC03F0F00EB66E1200FF0E18
:10064800246EFF0E256E22C026F023C027F024500A
:1006580026262550272226C042F027C043F0446AA8
:10066800456A1200E3EC03F06AEC03F022EC02F0B6
:1006780092EC03F0B2EC03F09EEC03F00EEC03F006
:10068800A8EC03F076EC02F01200010E0C26000E26
:100698000D220E220F22010E0426000E052206222C
:1006A8000722010E0826000E09220A220B22120038
:1006B80036EC03F0DEEC03F04FEC02F0F28EF28C35
:1006C8003DEC00F064EF03F03BEF00F0000E0E018C
:1006D800DC6F000EDD6F000EDE6F000EDF6F000EA8
:1006E800E06F000EE16F120000EE01F01F0EEE6ADF
:1006F800E806FDE146904692000EF86E00015CEFB8
:1007080003F049EC03F0010E1326000E1422152203
:1007180016221722182219221A221200600E0E0120
:10072800D36F000ED56F000ED76F080ED96F000E6D
:10073800D86F1200800EA16EA068C00E9F6EAD50DB
:100748003F0B8009AD6E1200800EA46EA368C00E28
:10075800A26EAD50CF0B2009AD6E12008C0EAB6EA1
:10076800030EAA6EA968AD50FC0B0209AD6E12000B
:100778000E01C59B4150D36E40C0D2FFF7EC02F08A
:100788001200246E24C010F022C011F023C012F011
:10079800120024C010F023C011F022C012F0120081
:1007A80022C03CF023C03DF0120022C03EF023C01E
:1007B8003FF01200E1EC03F01200B68E1200F29A3C
:0607C800120012001200F5
:020000040020DA
:10000000FFFFFFFFFFFFFFFFFFFFFFFFFFFFFFFF00
:10001000FFFFFFFFFFFFFFFFFFFFFFFFFFFFFFFFF0
:10002000FFFFFFFFFFFFFFFFFFFFFFFFFFFFFFFFE0
:10003000FFFFFFFFFFFFFFFFFFFFFFFFFFFFFFFFD0
:10004000FFFFFFFFFFFFFFFFFFFFFFFFFFFFFFFFC0
:10005000FFFFFFFFFFFFFFFFFFFFFFFFFFFFFFFFB0
:10006000FFFFFFFFFFFFFFFFFFFFFFFFFFFFFFFFA0
:10007000FFFFFFFFFFFFFFFFFFFFFFFFFFFFFFFF90
:10008000FFFFFFFFFFFFFFFFFFFFFFFFFFFFFFFF80
:10009000FFFFFFFFFFFFFFFFFFFFFFFFFFFFFFFF70
:1000A000FFFFFFFFFFFFFFFFFFFFFFFFFFFFFFFF60
:1000B000FFFFFFFFFFFFFFFFFFFFFFFFFFFFFFFF50
:1000C000FFFFFFFFFFFFFFFFFFFFFFFFFFFFFFFF40
:1000D000FFFFFFFFFFFFFFFFFFFFFFFFFFFFFFFF30
:1000E000FFFFFFFFFFFFFFFFFFFFFFFFFFFFFFFF20
:1000F000FFFFFFFFFFFFFFFFFFFFFFFFFFFFFFFF10
:020000040030CA
:0C0000008CFFFFFF9FFFFFFFFFFFFFFFD3
:00000001FF
