:020000040000FA
:0400000020EF00F0FD
:100008000F82FACF09F0FBCF0AF00E01BDAB0FEF5C
:1000180000F011EF00F01AEF00F0C5AB16EF00F09A
:1000280018EF00F01AEF00F096EC00F00AC0FBFFA2
:1000380009C0FAFF0F921100DEEF00F00850071018
:1000480006100510041003100BE1E80E015C030E06
:100058000258D8A032EF00F034EF00F070EF00F053
:1000680020EE01F0070EDE6AE806FDE284B63FEFF7
:1000780000F042EF00F0010E43EF00F0000EFF0A1F
:100088000B6E0B460B460B4684500B18F70B0B18E0
:10009800846E84B252EF00F055EF00F0010E56EF77
:1000A80000F0000EFF0A0B6E0B4684500B18FD0B78
:1000B8000B18846E84BA63EF00F066EF00F0010E4F
:1000C80067EF00F0000EFF0A0B6E0B3A0B468450E8
:1000D8000B18DF0B0B18846E1200000E826E000ED8
:1000E800836E000E846E87688868D50E896E0F014E
:1000F8001C6914690C69000E286F000E136F000E3E
:100108000B6F000E1B6F000E0A6F000E126F000EB1
:100118001A6F096911691969086910691869080E5F
:10012800256F12000E01C59B0D500E10D8B49FEF1D
:1001380000F0A1EF00F0AEEF00F002D8AEEF00F053
:100148000500FA6E0D50FD6E0E50FE6EF850FF6EF3
:10015800FA5012001200400ED56EF90ED36E000E42
:10016800D26E0E01C59BBD8B500E0B6E020E0C6E2F
:1001780021EC01F0800ED46E1200010EBE6E000E4E
:10018800BD6E000EBF6EAB0EBB6E000EBA6E0E01DA
:10019800C9938F0EBC6E1200000E0E01DC6F000EAC
:1001A800DD6F000EDE6F000EDF6F000EE06F000ED9
:1001B800E16F120000EE01F0080EEE6AE806FDE1BC
:1001C8000F900F92000EF86E000104EF01F026EC7C
:1001D80001F0D0EC00F071EC00F0F8EC00F0C1ECAC
:1001E80000F0AFEC00F01200700E0E01D36F000E9D
:1001F800D56F000ED76F020ED96F000ED86F1200A0
:10020800EBEC00F01AEC01F0F28E22EC00F009EFB2
:1002180001F020EF00F0010E0126000E0222032259
:100228000422052206220722082212001E0E0B6E47
:10023800020E0C6E21EC01F012000BC00DF00CC088
:0A0248000EF01200F29A12001200EC
:020000040020DA
:10000000FFFFFFFFFFFFFFFFFFFFFFFFFFFFFFFF00
:10001000FFFFFFFFFFFFFFFFFFFFFFFFFFFFFFFFF0
:10002000FFFFFFFFFFFFFFFFFFFFFFFFFFFFFFFFE0
:10003000FFFFFFFFFFFFFFFFFFFFFFFFFFFFFFFFD0
:10004000FFFFFFFFFFFFFFFFFFFFFFFFFFFFFFFFC0
:10005000FFFFFFFFFFFFFFFFFFFFFFFFFFFFFFFFB0
:10006000FFFFFFFFFFFFFFFFFFFFFFFFFFFFFFFFA0
:10007000FFFFFFFFFFFFFFFFFFFFFFFFFFFFFFFF90
:10008000FFFFFFFFFFFFFFFFFFFFFFFFFFFFFFFF80
:10009000FFFFFFFFFFFFFFFFFFFFFFFFFFFFFFFF70
:1000A000FFFFFFFFFFFFFFFFFFFFFFFFFFFFFFFF60
:1000B000FFFFFFFFFFFFFFFFFFFFFFFFFFFFFFFF50
:1000C000FFFFFFFFFFFFFFFFFFFFFFFFFFFFFFFF40
:1000D000FFFFFFFFFFFFFFFFFFFFFFFFFFFFFFFF30
:1000E000FFFFFFFFFFFFFFFFFFFFFFFFFFFFFFFF20
:1000F000FFFFFFFFFFFFFFFFFFFFFFFFFFFFFFFF10
:020000040030CA
:0C000000FCFFFFFF9FFFFFFFFFFFFFFF63
:00000001FF
